:1000000053C1000081C100007FC100007DC100001C
:100010007BC1000079C1000077C1000075C10000FC
:1000200073C1000071C100006FC100006DC100000C
:100030006BC1000069C1000067C1000065C100001C
:1000400063C10000B1C700005FC100005DC10000D6
:100050005BC1000059C1000057C10000D4C60000B8
:1000600053C100009AC600006FC600004DC10000D9
:100070004BC1000049C1000047C1000045C100005C
:1000800066C7000041C100003FC100003DC1000043
:100090003BC1000039C1000037C1000035C100007C
:1000A00033C1000031C1000025C700002DC1000090
:1000B0002BC1000029C1000027C10000EEC60000CE
:1000C00023C1000021C100001FC100001DC10000AC
:1000D0001BC1000019C1000017C1000015C10000BC
:1000E00013C100009403970386038A038E03CE0393
:1000F0009B039F03A503A903AD03B303B703BB038E
:10010000CE03C103C503C90307634236B79BD8A713
:100110001A39685618AEBAAB558C1D3CB7CC57632C
:10012000BD6DEDFD753EF6177231BF000000803FDA
:1001300008000000BE922449123EABAAAA2ABECDF6
:10014000CCCC4C3E00000080BEABAAAAAA3E000068
:100150000000BF000000803F000000000008417860
:10016000D3BB4387D1133D190E3CC3BD4282AD2B97
:100170003E68EC8276BED98FE1A93E4C80EFFFBE8F
:1001800001C4FF7F3F000000000000000A0B0209CD
:100190000C0D0E0807030401000000000000000021
:1001A000000000000000000000000000000000004F
:1001B000000000000000121110000000000000000C
:1001C000000000000000000000000000000000002F
:1001D0000000000000000000002200250028002B85
:1001E000002E003100340002010000050108010B5F
:1001F0000100002100240027002A002D00300033D8
:100200000001010000040107010A010505050507B9
:100210000508080808020202020A0A080804040481
:1002200004010101010101010103030303030303AD
:1002300003040707070C0C0C0C0C0C0C0C0202023C
:100240000206060606060606060B0B0B0B0B0B0B2F
:100250000B0A0A0A0A0A0A050102102020080810DF
:100260002040102040800201020108040201010226
:1002700004081020408080402010080402018004FF
:10028000020180402010080402010804020101025A
:100290000408102040800102040810204080040857
:1002A000102040808000010811241FBECFEFD1E252
:1002B000DEBFCDBF00E00CBF12E0A0E0B2E0E6EB95
:1002C000FDE100E00BBF02C007900D92AA35B10717
:1002D000D9F723E0AAE5B2E001C01D92A63BB20720
:1002E000E1F711E0C4E5D1E000E006C02197010983
:1002F000802FFE010E94C70EC335D10780E008079A
:10030000A9F709D70C94D90E7BCE90E0FC01E85AEE
:10031000FD4F2491FC01E55FFD4F8491882399F006
:1003200090E0880F991FFC01EF50FE4FA591B4910A
:10033000FC01E952FE4F859194918FB7F894EC91AE
:10034000E22BEC938FBF0895CF92DF92EF92FF9252
:10035000DC01A03282E0B8070CF03EC0B7FD06C059
:10036000A53BB1052CF0A4EBB0E002C0A0E0B0E0EA
:100370008091B40328E830E06901C81AD10887FDEC
:10038000D394CC0CDD1CCC0CDD1C0D2C000CEE0829
:10039000FF088091B50328E532E0281B310987FD6D
:1003A0003395220F331F220F331FA901330F660B22
:1003B000770B9A01AB012C193D094E095F090E9488
:1003C000300B24EB30E040E050E00E940A0BC20EFC
:1003D000D31EE41EF51ED6012091B303203308F08E
:1003E0003EC08091B40348E850E0481B510987FDA6
:1003F0005395440F551F440F551FA417B5078CF094
:100400003091B50388E592E0831B910937FD939500
:10041000880F991F880F991FAD018A179B070CF44D
:10042000AC01DA011297FFB6F894422F50E02EE0AB
:1004300030E00E94CF0EDC01CB0123E0B595A795FB
:10044000979587952A95D1F7FA01EE0FFF1F4E0F6A
:100450005F1FFA01E65FFC4F92838183FFBEFF902E
:10046000EF90DF90CF900895CF92DF92EF92FF92BE
:100470000F931F93CF93DF936C017A018B01C0E040
:10048000D0E0CE15DF0589F0D8016D918D01D60140
:10049000ED91FC910190F081E02DC6011995892B19
:1004A00011F47E0102C02196ECCFC701DF91CF91FC
:1004B0001F910F91FF90EF90DF90CF900895FC0176
:1004C000538D448D252F30E0842F90E0821B930BB9
:1004D000541710F0CF96089501970895FC01918D5F
:1004E000828D981761F0828DDF01A80FB11D5D9696
:1004F0008C91928D9F5F9F73928F90E008958FEF04
:100500009FEF0895FC01918D828D981731F0828DB7
:10051000E80FF11D858D90E008958FEF9FEF08950E
:10052000FC01918D228D892F90E0805C9F4F821B72
:1005300091098F73992708958DE692E0F1DF21E00C
:10054000892B09F420E0822F0895FC01848DDF01BE
:10055000A80FB11DA35ABF4F2C91848D90E0019636
:100560008F739927848FA689B7892C93A089B18925
:100570008C9180648C93938D848D981306C002882F
:10058000F389E02D80818F7D80830895EF92FF9223
:100590000F931F93CF93DF93EC0181E0888F9B8DA6
:1005A0008C8D981305C0E889F989808185FD23C069
:1005B000F62E0B8D10E00F5F1F4F0F731127E02EEB
:1005C0008C8DE8120BC00FB607FCFACFE889F989C9
:1005D000808185FFF5CFCE01B8DFF2CF8B8DFE0194
:1005E000E80FF11DE35AFF4FF0820B8FEA89FB8978
:1005F0008081806207C0EE89FF896083E889F9897C
:1006000080818064808381E090E0DF91CF911F91B1
:100610000F91FF90EF900895CF93DF93EC01888DB9
:100620008823C1F0EA89FB89808185FD05C0A889FE
:10063000B9898C9186FD0EC00FB607FCF5CF80817D
:1006400085FFF2CFA889B9898C9185FFEDCFCE01C6
:100650007CDFE8CFDF91CF91089580E090E0892B97
:1006600019F06ADF811125C080E090E0892B41F00C
:1006700080E090E0892B21F00E94000081111CC0D5
:1006800080E090E0892B41F080E090E0892B21F020
:100690000E940000811113C080E090E0892BA1F03E
:1006A00080E090E0892B81F00E94000081110AC057
:1006B00008950E940000D8CF0E940000E1CF0E9460
:1006C0000000EACF0C9400000895362F90E0FC0162
:1006D000E657FE4F4491FC01E85AFD4F2491FC017E
:1006E000E55FFD4F9491992309F46BC0442309F40D
:1006F00055C050E0FA013197E231F10508F04EC0E3
:100700008827EE58FF4F8F4F0C94C70E80918000C2
:100710008F7707C0809180008F7D03C0809180001B
:10072000877F809380003AC084B58F7702C084B5FC
:100730008F7D84BD33C08091B0008F7703C08091DE
:10074000B0008F7D8093B00029C0809190008F779A
:1007500007C0809190008F7D03C080919000877FBB
:10076000809390001BC08091A0008F7707C080917C
:10077000A0008F7D03C08091A000877F8093A000A0
:100780000DC0809120018F7707C0809120018F7D5F
:1007900003C080912001877F80932001E92FF0E042
:1007A000EE0FFF1FE952FE4FA591B4918FB7F89459
:1007B000EC91311103C020952E2301C02E2B2C93D8
:1007C0008FBF0895863308F0865390917B00282FC1
:1007D0002870977F922B90937B0087708064809322
:1007E0007C0080917A00806480937A0080917A0006
:1007F00086FDFCCF809178002091790090E0922BCB
:1008000008953FB7F8948091630290916402A0919B
:100810006502B091660226B5A89B05C02F3F19F06E
:100820000196A11DB11D3FBFBA2FA92F982F882770
:10083000820F911DA11DB11DBC01CD0142E0660FCB
:10084000771F881F991F4A95D1F708958F929F921D
:10085000AF92BF92CF92DF92EF92FF926B017C0139
:10086000D0DF4B015C01C114D104E104F104E9F0D3
:10087000C8DFDC01CB0188199909AA09BB09883EA8
:100880009340A105B10578F321E0C21AD108E1082F
:10089000F10888EE880E83E0981EA11CB11CC114DB
:1008A000D104E104F10421F7DECFFF90EF90DF9057
:1008B000CF90BF90AF909F908F900895CF92DF928E
:1008C000EF92FF920F931F93CF93DF936C018B01F5
:1008D0007A01EC01C65ADD4F888187FF04C0FB0115
:1008E0001182108224C08CE08C9D90018D9D300D72
:1008F00011248881A901480F511D87FD5A958091C7
:100900009A0390E04817590794F48881A901480F89
:10091000511D87FD5A95CA01FA01EE0FFF1F8E0F78
:100920009F1FFC01E65FFC4F808186FD19C0888116
:100930008F5F88838CE08C9D90018D9D300D1124FC
:100940008881A901480F511D87FD5A9580919A030E
:1009500090E048175907B4F488818C303CF112C0FC
:100960008881280F311D87FD3A95F901EE0FFF1F91
:100970002E0F3F1FF901E65FFC4F808160E08F730F
:10098000A4DED5CFF801808191810496883B9848F8
:1009900018F488EB98E804C0F801808191810496EE
:1009A000F701918380838FEF888344C0F8014081F1
:1009B00051818881B901680F711D87FD7A95CB013E
:1009C000FB01EE0FFF1F8E0F9F1FFC01E65FFC4F28
:1009D00081819281840F951FF701918380838881A3
:1009E000A901480F511D87FD5A95CA01FA01EE0F62
:1009F000FF1F8E0F9F1FFC01E65FFC4F808186FF6B
:100A000019C08881280F311D87FD3A95F901EE0F35
:100A1000FF1F2E0F3F1FF901E65FFC4F808161E051
:100A20008F73DF91CF911F910F91FF90EF90DF9027
:100A3000CF904BCEDF91CF911F910F91FF90EF9010
:100A4000DF90CF900895CF93DF93EC0160E08E812B
:100A50003CDE61E08E8139DE60E08E8136DE87E249
:100A600091E00197F1F7DF91CF910895CF92DF9256
:100A7000EF92FF920F931F93CF93DF937C016C0152
:100A800087E0C80ED11CC0E0D0E0062F10E0B8010E
:100A90000C2E02C0759567950A94E2F76170F60115
:100AA00081916F0112DE2196C430D10581F7C70113
:100AB000DF91CF911F910F91FF90EF90DF90CF903A
:100AC000C2CFCF92DF92EF92FF920F931F93CF93FB
:100AD000DF93EC01F62E642F8C81F7DD8D818F3F43
:100AE00011F060E0F2DD8F850F2D10E084FF23C050
:100AF0006E0187E0C80ED11CE12CF12CB8010E2C40
:100B000002C0759567950A94E2F76170F6018191CC
:100B10006F01DBDDFFEFEF1AFF0A88E0E816F10452
:100B200069F7CE01DF91CF911F910F91FF90EF9068
:100B3000DF90CF9088CFB80184E0759567958A954E
:100B4000E1F7CE0193DF6F2DCE01DF91CF911F91A1
:100B50000F91FF90EF90DF90CF9088CF41E0B1DF11
:100B600081E090E0089540E0ACCFEF92FF920F93C8
:100B70001F93CF93DF93EC01623018F08F8588606C
:100B80008F876B8B1C8A80E48D8B80E18E8B80E558
:100B90008F8B8C81BADB8D818F3F09F0B6DB8E8124
:100BA000B4DB7E0187E0E80EF11C00E010E08F85E9
:100BB00084FD03C084E090E002C088E090E0081764
:100BC00019073CF4F70181917F019FDB0F5F1F4FF5
:100BD000EECF8BEE99E40197F1F760E08C8175DD43
:100BE00060E08E8172DD8D818F3F11F060E06DDD00
:100BF0006F8564FD19C063E0CE0138DF07EB14E3B5
:100C0000C8010197F1F763E0CE0130DFC801019719
:100C1000F1F763E0CE012ADF8DEB91E00197F1F768
:100C200062E0CE0123DF13C06062CE019CDF87EB60
:100C300094E30197F1F76F856062CE0194DF8DEB4D
:100C400091E00197F1F76F856062CE018CDF6F85CF
:100C50006062CE0188DF84E0888B6CE0CE0183DFA8
:100C600061E0CE0180DF8BE697E10197F1F782E04A
:100C7000898B66E0CE01DF91CF911F910F91FF909C
:100C8000EF9071CF089580E090E008950E94D50E16
:100C90006115710579F0FB0101900020E9F73197AA
:100CA000AF01461B570BDC01ED91FC910280F381F3
:100CB000E02D199480E090E008954F925F926F923A
:100CC0007F92EF92FF920F931F93CF93DF93CDB755
:100CD000DEB7A1970FB6F894DEBF0FBECDBF7C0183
:100CE000FA01CB0119A2223008F42AE08E010F5D2F
:100CF0001F4F422E512C612C712CBF01A301920178
:100D0000B5D4F901CA01015011096A3014F4605DCB
:100D100001C0695CD8016C93232B242B252B69F728
:100D2000B801C701B5DFA1960FB6F894DEBF0FBEBC
:100D3000CDBFDF91CF911F910F91FF90EF907F90EA
:100D40006F905F904F9008951F920F920FB60F9281
:100D500011240BB60F922F933F934F935F936F9392
:100D60007F938F939F93AF93BF93EF93FF938DE602
:100D700092E0EBDBFF91EF91BF91AF919F918F914B
:100D80007F916F915F914F913F912F910F900BBE8B
:100D90000F900FBE0F901F9018951F920F920FB6D5
:100DA0000F9211240BB60F922F938F939F93EF9373
:100DB000FF93E0917D02F0917E028081E0918302B9
:100DC000F091840282FD12C09081809186028F5F33
:100DD0008F7320918702821751F0E0918602F0E034
:100DE000E359FD4F958F8093860201C08081FF916A
:100DF000EF919F918F912F910F900BBE0F900FBE8F
:100E00000F901F9018951F920F920FB60F921124FA
:100E10002F933F938F939F93AF93BF9380915F02E4
:100E200090916002A0916102B091620230915E02E5
:100E300025E1230F2D3720F40196A11DB11D05C01A
:100E400028E9230F0296A11DB11D20935E02809315
:100E50005F0290936002A0936102B093620280915E
:100E6000630290916402A0916502B09166020196BE
:100E7000A11DB11D8093630290936402A09365024B
:100E8000B0936602BF91AF919F918F913F912F9147
:100E90000F900FBE0F901F9018951F920F920FB6D4
:100EA0000F9211240BB60F922F933F934F935F93A2
:100EB0006F937F938F939F93AF93BF93EF93FF9322
:100EC00048E251E064E271E080E090E0F7DCFF91FD
:100ED000EF91BF91AF919F918F917F916F915F91B2
:100EE0004F913F912F910F900BBE0F900FBE0F901F
:100EF0001F9018951F920F920FB60F9211240BB6E8
:100F00000F922F933F934F935F936F937F938F93A2
:100F10009F93AF93BF93EF93FF9348EA50E064EA47
:100F200070E083E090E0CADCFF91EF91BF91AF9158
:100F30009F918F917F916F915F914F913F912F91F1
:100F40000F900BBE0F900FBE0F901F9018951F9221
:100F50000F920FB60F9211240BB60F922F933F935F
:100F60004F935F936F937F938F939F93AF93BF93B1
:100F7000EF93FF9348E950E064E970E082E090E08D
:100F80009DDCFF91EF91BF91AF919F918F917F91E8
:100F90006F915F914F913F912F910F900BBE0F90EA
:100FA0000FBE0F901F9018951F920F920FB60F92C1
:100FB00011240BB60F922F933F934F935F936F9330
:100FC0007F938F939F93AF93BF93EF93FF9348E8E3
:100FD00050E064E870E081E090E070DCFF91EF9118
:100FE000BF91AF919F918F917F916F915F914F9141
:100FF0003F912F910F900BBE0F900FBE0F901F903F
:1010000018951092700210926F0288EE93E0A0E0A3
:10101000B0E08093710290937202A0937302B09338
:10102000740284E092E090936E0280936D0285ECEE
:1010300090E090937A028093790284EC90E0909310
:101040007C0280937B0280EC90E090937E02809300
:101050007D0281EC90E09093800280937F0282EC8D
:1010600090E0909382028093810286EC90E09093CE
:10107000840280938302109286021092870210925B
:1010800088021092890280919A038033A0F491E043
:10109000980F90939A038093B30390E0FC01EE0FB6
:1010A000FF1F8E0F9F1FFC01E65FFC4F81E49AE05B
:1010B0009283818303C08FEF8093B30310929E03CA
:1010C00010929D0386E192E090939C0380939B0392
:1010D00085E280939F0384E28093A00383E2809360
:1010E000A10381E28093A20380E28093A3038FE1B6
:1010F0008093A4038EE18093A5031092A60310921F
:10110000A7031092A8031092A9031092AA0361E00A
:101110008BE993E02ACD789484B5826084BD84B550
:10112000816084BD85B5826085BD85B5816085BDE2
:1011300080916E00816080936E001092810080919A
:101140008100826080938100809181008160809322
:101150008100809180008160809380008091B10047
:1011600084608093B1008091B00081608093B00072
:1011700080919100826080939100809191008160C4
:101180008093910080919000816080939000809185
:10119000A10082608093A1008091A1008160809372
:1011A000A1008091A00081608093A0008091210126
:1011B00082608093210180912101816080932101CF
:1011C0008091200181608093200180917A00846069
:1011D00080937A0080917A00826080937A00809177
:1011E0007A008E7F80937A0080917A008068809365
:1011F0007A001092C1008091B303803308F04FC091
:1012000087E083D88091B303E82FF0E09F01220F9D
:10121000331FE20FF31FE65FFC4F9081907C9760D5
:1012200090831092B4031092B5036CE0A4D59CE0B7
:10123000899FB001112440E050E09A01260F371F2A
:10124000F901EE0FFF1F2E0F3F1FF901E65FFC4F64
:10125000908196FD17C04F5F5F4F4C30510569F785
:10126000813009F0ABC11092800082E08093810050
:101270001092850010928400B19A80916F00826074
:1012800080936F00E091B303F0E0CF01880F991FC6
:10129000E80FF91FE65FFC4F80818064808362E085
:1012A0008BE993E062DC82E030D8E1E08091AE032C
:1012B0008111E0E0E195F0E0E556FC4F648960685B
:1012C0008BE993E050DC6EE172E08BE993E0E0DCC7
:1012D00068EE73E080E090E0B9DA8DE216D88EE235
:1012E00014D88FE212D861E08EE2EFD9E0917D024E
:1012F000F0917E0282E08083E0917902F0917A029F
:101300001082E0917B02F0917C028FEB808310923F
:101310008502E0918102F091820286E08083E09173
:101320007F02F0918002808180618083E0917F0262
:10133000F0918002808188608083E0917F02F0914B
:101340008002808180688083E0917F02F09180023A
:1013500080818F7D8083C4EBD0E00BE617E186E3CC
:1013600031DABC01990F880B990B4CD22FEE39EC76
:1013700043E95FE336D39B01AC0160E070E080E8B5
:101380009FE3A5D12AE939EF4EE255E4C7D220E028
:1013900030E040E251E4C2D202D270936C0260931A
:1013A0006B0287E30FDA88E30DDA89E30BDA2AE0D0
:1013B00047E350E060E070E08DE692E07EDC6DE2B5
:1013C00072E08DE692E064DC60E372E08DE692E02C
:1013D0005FDC2AE048E350E060E070E08DE692E0F8
:1013E0006CDC60E372E08DE692E052DC2AE049E3D7
:1013F00050E060E070E08DE692E05FDC60E372E078
:101400008DE692E045DC6DE272E08DE692E040DC34
:1014100064E372E08DE692E03BDC6DE272E08DE623
:1014200092E036DC8BE3CED990936A028093690216
:10143000843691050CF06EC061E082E046D968EE1A
:1014400073E080E090E002DA60E082E03ED9109242
:101450006802109267028091670290916802853B52
:101460009105CCF46BE472E08DE692E011DCE09043
:101470006702F0906802C7010E94A4016FE070E06B
:1014800080E090E0E3D98FEFE81AF80AF092680262
:10149000E0926702E0CFD0936802C0936702809128
:1014A00067029091680297FD19C06FE472E08DE6C3
:1014B00092E0EEDBE0906702F0906802C7010E94C4
:1014C000A4016FE070E080E090E0C0D991E0E91AFB
:1014D000F108F0926802E0926702E1CF61E08DE2EC
:1014E000F4D860E08FE2F1D868EE73E080E090E03D
:1014F000ADD961E08FE2E9D860E08DE2E6D868EE30
:1015000073E080E090E0A2D960E08FE2DED860E096
:101510008DE2DBD861E08BE993E025DBC801019720
:10152000F1F7E1E08091AE038111E0E0E195F0E0B8
:10153000E556FC4F648960688BE993E014DB63E552
:1015400072E08BE993E0A4DBE091AE03E23010F4AB
:10155000E15001C0E1E0F0E0E556FC4F64896068CD
:101560008BE993E000DBC0906B02D0906C020D2CF5
:10157000000CEE08FF08F7FE14C0E0919B03F09109
:101580009C030190F081E02D6DE28BE993E01995C9
:1015900044275527BA014C195D096E097F092AE0D5
:1015A00003C02AE0B701A6018BE993E086DB6CE279
:1015B00071E080E090E04AD950D8D1CE823061F419
:1015C00010929000809391001092950010929400D8
:1015D00088BB8093710056CE833069F41092A000CE
:1015E00082E08093A1001092A5001092A40089BB14
:1015F0008093720047CE811145CE1092200182E087
:101600008093210110922501109224018ABB8093BE
:10161000730038CE052E97FB16F400940FD057FDBB
:1016200005D024D007FC02D046F408C05095409560
:10163000309521953F4F4F4F5F4F0895909580957E
:10164000709561957F4F8F4F9F4F089531D0A59F23
:10165000900DB49F900DA49F800D911D11240895AD
:10166000B7FFF4CFF3DF821B930B0895A1E21A2E8C
:10167000AA1BBB1BFD010DC0AA1FBB1FEE1FFF1F36
:10168000A217B307E407F50720F0A21BB30BE40B86
:10169000F50B661F771F881F991F1A9469F76095CD
:1016A0007095809590959B01AC01BD01CF01089587
:1016B000A29FB001B39FC001A39F700D811D112493
:1016C000911DB29F700D811D1124911D08950CD0A4
:1016D000EBC0E3D040F0DAD030F021F45F3F19F0F6
:1016E000CCC0511115C1CFC0F0D098F39923C9F3E4
:1016F0005523B1F3951B550BBB27AA276217730718
:10170000840738F09F5F5F4F220F331F441FAA1FCB
:10171000A9F333D00E2E3AF0E0E830D0915050408B
:10172000E695001CCAF729D0FE2F27D0660F771F39
:10173000881FBB1F261737074807AB07B0E809F01B
:10174000BB0B802DBF01FF2793585F4F2AF09E3FB0
:10175000510568F092C0DCC05F3FECF3983EDCF3CB
:10176000869577956795B795F7959F5FC9F7880F29
:10177000911D9695879597F90895E1E0660F771F7B
:10178000881FBB1F621773078407BA0720F0621B0C
:10179000730B840BBA0BEE1F88F7E095089504D005
:1017A0006894B111B5C0089598D088F09F5790F013
:1017B000B92F9927B751A0F0D1F0660F771F881F76
:1017C000991F1AF0BA95C9F712C0B13081F09FD0B5
:1017D000B1E008959CC0672F782F8827B85F39F053
:1017E000B93FCCF3869577956795B395D9F73EF4D5
:1017F00090958095709561957F4F8F4F9F4F08957D
:10180000E89409C097FB3EF490958095709561959A
:101810007F4F8F4F9F4F9923A9F0F92F96E9BB2750
:101820009395F695879577956795B795F111F8CFCC
:10183000FAF4BB0F11F460FF1BC06F5F7F4F8F4F37
:101840009F4F16C0882311F096E911C0772321F02D
:101850009EE8872F762F05C0662371F096E8862FC5
:1018600070E060E02AF09A95660F771F881FDAF71C
:10187000880F9695879597F9089597F99F6780E85F
:1018800070E060E008959FEF80EC089500240A94D2
:101890001616170618060906089500240A9412164B
:1018A0001306140605060895092E0394000C11F47E
:1018B000882352F0BB0F40F4BF2B11F460FF04C02B
:1018C0006F5F7F4F8F4F9F4F089557FD9058440F84
:1018D000551F59F05F3F71F04795880F97FB991F8F
:1018E00061F09F3F79F0879508951216130614064C
:1018F000551FF2CF4695F1DF08C0161617061806D9
:10190000991FF1CF86957105610508940895E894B3
:10191000BB2766277727CB0197F908950BD0C4CF53
:10192000B5DF28F0BADF18F0952309F0A6CFABCFCA
:101930001124EECFCADFA0F3959FD1F3950F50E0AD
:10194000551F629FF001729FBB27F00DB11D639F71
:10195000AA27F00DB11DAA1F649F6627B00DA11D17
:10196000661F829F2227B00DA11D621F739FB00DBD
:10197000A11D621F839FA00D611D221F749F33272D
:10198000A00D611D231F849F600D211D822F762FC6
:101990006A2F11249F5750408AF0E1F088234AF0C3
:1019A000EE0FFF1FBB1F661F771F881F915050400F
:1019B000A9F79E3F510570F060CFAACF5F3FECF3CF
:1019C000983EDCF3869577956795B795F795E795FB
:1019D0009F5FC1F7FE2B880F911D9695879597F90C
:1019E0000895FA01EE0FFF1F30962105310599F198
:1019F0006115710561F48038BFE39B0749F1689474
:101A00009038810561F08038BFEF9B0741F0992342
:101A100042F5FF3FE1053105210511F1E8940894F5
:101A2000E795D901AA2329F4AB2FBE2FF85FD0F395
:101A300010C0FF5F70F4A695E0F7F73950F019F089
:101A4000FF3A38F49F779F930CD00F9007FC905883
:101A500008953EF018CF60E070E080E89FE30895BD
:101A60004FE79F775F934F933F932F939ED02F9194
:101A70003F914F915F9152DF05C019F40EF0FDCEFA
:101A800046CF01CF2ADFC8F39638C0F707F80F9288
:101A9000E8942BE33AEA48EB5FE74EDF0F920F92B0
:101AA0000F924DB75EB70F92C0D0E8E0F1E016D0CC
:101AB0004F915F91EF91FF91E595EE1FFF1F49F068
:101AC000FE57E0684427EE0F441FFA95E1F7419571
:101AD000550B32D00F9007FE26C00895DF93CF93A9
:101AE0001F930F93FF92EF92DF927B018C0168941A
:101AF00005C0DA2EEF011EDFFE01E894A5912591C5
:101B0000359145915591AEF3EF01D4D0FE01970187
:101B1000A801DA9479F7DF90EF90FF900F911F9171
:101B2000CF91DF9108959B01AC0160E070E080E807
:101B30009FE3CDCDA2CE11C1D0DEE8F39923D9F336
:101B4000940F511DBBF39150504094F059F08823ED
:101B500032F0660F771F881F91505040C1F79E3FAB
:101B6000510544F7880F911D9695879597F908952B
:101B70005F3FACF0983E9CF0BB27869577956795C4
:101B8000B79508F4B1609395C1F7BB0F58F711F4FE
:101B900060FFE8CF6F5F7F4F8F4F9F4FE3CFB8CE8F
:101BA0000EF0DBC070CE689468CE97DEC8F3992340
:101BB000D1F3C6F3DF93CF931F930F93FF92C92FF7
:101BC000DD2788232AF02197660F771F881FDAF711
:101BD00020E030E040E85FEB9FE3883920F0803E72
:101BE00030F021968F7755D0E0E3F1E003C051D07B
:101BF000EDE5F1E073DF8B01BE01EC01FB2E6F57C9
:101C000071097595771F880B990BFCDD28E132E788
:101C100041E35FE38FDEAF2D9801AE01FF900F919E
:101C20001F91CF91DF9146D03FCEFA01DC01AA0F80
:101C3000BB1F9B01AC01BF5728F422273327442741
:101C400050781FC0B75188F4AB2F002446953795C4
:101C50002795011CA395D2F3002069F0220F331FB2
:101C6000441FB395DAF30DD013C061307105A0E8BD
:101C70008A07B94630F49B01AC016627772788278D
:101C80009078309621F020833183428353830895E6
:101C90005058BB27AA270ED007CEF8DD30F0FDDD67
:101CA00020F031F49F3F11F41EF4EDCD0EF4E095D9
:101CB000E7FBE3CDE92F09DE80F3BA17620773076C
:101CC0008407950718F071F49EF521CE0EF4E09587
:101CD0000B2EBA2FA02D0B01B90190010C01CA01E6
:101CE000A0011124FF27591B99F0593F50F4503E91
:101CF00068F11A16F040A22F232F342F4427585F83
:101D0000F3CF469537952795A795F0405395C9F79A
:101D10007EF41F16BA0B620B730B840BBAF0915052
:101D2000A1F0FF0FBB1F661F771F881FC2F70EC0F1
:101D3000BA0F621F731F841F48F4879577956795C4
:101D4000B795F7959E3F08F0B3CF9395880F08F0AD
:101D50009927EE0F9795879508959F3F31F0915001
:101D600020F4879577956795B795880F911D96957F
:101D7000879597F90895991B79E004C0991F9617E4
:101D800008F0961B881F7A95C9F780950895EE0F85
:101D9000FF1F881F8BBF0790F691E02D199488DCF8
:101DA000B7FF0895821B930B089581E090E0F894AB
:061DB00000C0F894FFCF13
:101DB60000000000C60234025F020C0390026E02AD
:101DC600820200000000AE053402430642064E754C
:101DD60074747920537175697272656C000D0A000E
:101DE600202D20002D2D2D2D2D2D2D2D2D2D2D2D64
:101DF6002D2D2D2D2D2D2D2D2D2D006F6C61004996
:0A1E06004954005368617270000037
:00000001FF
