:100000000C9472000C943A020C9493000C9493009C
:100010000C9493000C9493000C9493000C94930014
:100020000C9493000C9493000C9493000C94930004
:100030000C9493000C9493000C9493000C949300F4
:100040000C9493000C9493000C9493000C949300E4
:100050000C9493000C9493000C9493000C949300D4
:100060000C9493000C9493000C9493000C949300C4
:100070000C9493000C9493000C9493000C949300B4
:100080000C9493000C9493000C9493000C949300A4
:100090000C9493000C9493000C9493000C94930094
:1000A0000C9493000C9493000C9493000C94930084
:1000B0000C9493000C9493000C9493000C94930074
:1000C0000C9493000C9493000C9493000C94930064
:1000D0000C9493000C9493000C9493000C94930054
:1000E0000C94930011241FBECFEFD1E2DEBFCDBF31
:1000F00000E00CBF12E0A0E0B2E0E2E9F8E000E0CE
:100100000BBF02C007900D92A432B107D9F712E0DD
:10011000A4E2B2E001C01D92A534B107E1F70E944C
:10012000C6030C9447040C9400008FE99FE00197EC
:10013000F1F700C000004098419880E388B9429AE6
:10014000EFE1FEE43197F1F700C000004298EFE9DB
:10015000FFE03197F1F700C000004098419888B95E
:10016000429AEFE1FEE43197F1F700C000004298B7
:10017000EFE9FFE03197F1F700C0000040984198A7
:1001800088B9429A8FE19EE40197F1F700C0000020
:100190004298EFE9FFE03197F1F700C00000409886
:1001A000419880E288B9429A8FE19EE40197F1F785
:1001B00000C000004298089598B19F7098B998B116
:1001C000282F207F922B98B940984198429AEFE1CE
:1001D000FEE43197F1F700C00000429898B19F709B
:1001E00098B998B18295807F892B88B940984198B9
:1001F000429A8FE19EE40197F1F700C00000429817
:1002000008950E9495008FE99FE00197F1F700C0E3
:10021000000088E20E94DC0081E00E94DC0086E0B1
:100220000E94DC008EE00E94DC0080E80E94DC007E
:10023000089598B19F7098B998B1282F207F922B7C
:1002400098B9409A4198429AEFE1FEE43197F1F76C
:1002500000C00000429898B19F7098B998B18295FB
:10026000807F892B88B9409A4198429A8FE19EE419
:100270000197F1F700C000004298089580E80E94BD
:10028000DC000895CF93DF93EC018881882331F05F
:1002900021960E94190189918823D9F7DF91CF9186
:1002A0000895823079F0833018F48130C9F405C0A4
:1002B000833069F08430A1F40FC0862F81580E94EA
:1002C000DC000895862F81540E94DC000895862F5B
:1002D0008D560E94DC000895862F8D520E94DC000E
:1002E00008950F931F93CF93DF938A01E901882329
:1002F00011F0662319F40E943E0102C00E945101D0
:10030000C530D10571F4C80160E177E20E94330481
:10031000CB01C09690933202809331020E94190162
:1003200003C0C430D105B9F4C80168EE73E00E947F
:100330003304CB0170933402609333026AE070E0BF
:100340000E943304C09690934402809343020E941B
:10035000190181E001C080E0C330D10511F0813086
:10036000B1F4C80164E670E00E943304CB017093DD
:100370003402609333026AE070E00E943304C09656
:100380009093400280933F020E94190181E0C230A5
:10039000D10511F08130B1F42AE030E0C801B90193
:1003A0000E943304CB017093340260933302B9018D
:1003B0000E943304C09690933E0280933D020E94B7
:1003C000190181E0C130D10511F0813061F4C8011B
:1003D0006AE070E00E943304C096909342028093DA
:1003E00041020E941901C630D1051CF085E40E942B
:1003F0001901DF91CF911F910F91089587B1876FF8
:1004000087B988B1807888B9089584B1806F84B93C
:1004100028985098589808956C98749A089510BA2E
:1004200011BA109207018FEF80930801089581B1EE
:100430008F6081B982B1807F82B9EAE0F1E080818A
:1004400088618083EBE0F1E080818861808308959A
:100450000E94FE010E940F020E9417020E940502E4
:100460000895F894E9E6F0E0808182608083E89A5C
:10047000789408951F920F920FB60F9211248F93C4
:100480009F93AF93BF938091240290912502A091F6
:100490002602B09127020196A11DB11D809324026E
:1004A00090932502A0932602B0932702BF91AF91AB
:1004B0009F918F910F900FBE0F901F901895E1E2C2
:1004C000F1E010828FEF8093250191E09093240159
:1004D000109229018093280110922B0180932A0108
:1004E00010922D0180932C0189EA809320018BE0EA
:1004F00080830895EAE7F0E0108210927B0080EE9E
:1005000080937C0080E880BF86E8808308958830EF
:1005100018F098E090937B008770806E80937C0049
:10052000EAE7F0E0808180648083808184FFFDCFF2
:1005300080917900EAE7F0E09081906190831092D9
:100540007B0096E890830895CF93DF93D82FC62F32
:10055000842F0E948702482F80932C028D2F6C2FAE
:1005600050E023E030E00E947101DF91CF910895C7
:100570008093280160932A01089592B1907F8F7033
:10058000982B92B9089586E00E94BD02089580E0FC
:100590000E94BD020895F8940E9428020E947A02E7
:1005A0000E945F020E943102789408952E982F983D
:1005B00008952E9A2F9A08952E982F9A08952E9A7C
:1005C0002F9808952C9A2D9A08950F931F930E94A7
:1005D000D602109224021092250210922602109246
:1005E00027028FEF91EEA4E081509040A040E1F708
:1005F00000C000008091240290912502A091260263
:10060000B09127028093390290933A02A0933B0263
:10061000B0933C0281E061E00E94510180E092E0F1
:100620000E9442010091390210913A0220913B024E
:1006300030913C0282E061E0A80125E030E00E94B8
:1006400071018FEF93EDA0E381509040A040E1F75E
:1006500000C0000081E00E94DC001F910F9108950E
:100660000F931F930E94D902109224021092250228
:1006700010922602109227028FEF91EEA4E0815093
:100680009040A040E1F700C00000809124029091CA
:100690002502A0912602B091270280933502909303
:1006A0003602A0933702B093380281E061E00E94E5
:1006B00051018BE092E00E944201009135021091BD
:1006C0003602209137023091380282E061E0A801C1
:1006D00025E030E00E9471018FEF93EDA0E381509F
:1006E0009040A040E1F700C0000081E00E94DC00E3
:1006F0001F910F9108950F931F930E94DC02109297
:1007000024021092250210922602109227028FEFE7
:1007100091EEA4E081509040A040E1F700C00000BD
:100720008091240290912502A0912602B091270287
:1007300080932D0290932E02A0932F02B09330024B
:1007400081E061E00E94510188E192E00E94420153
:1007500000912D0210912E0220912F023091300233
:1007600082E061E0A80125E030E00E9471018FEF96
:1007700093EDA0E381509040A040E1F700C000005D
:1007800081E00E94DC001F910F9108950E94CB022E
:100790000E9495000E9401010E94E20283E00E94F3
:1007A000870280932A0282E00E94870280932902B6
:1007B00081E00E9487028093280210922B0281E040
:1007C00061E043E00E94A40281E065E042E00E9413
:1007D000A40281E069E041E00E94A4028091290224
:1007E000813248F081E080932B020E94C30284E6AC
:1007F00064E60E94B80280912A02803268F48091F7
:100800002B02882349F481E080932B020E94C302CB
:1008100084E662E30E94B80280912802803268F484
:1008200080912B02882349F481E080932B020E945F
:10083000C30282E364E60E94B802809129028032FA
:1008400008F0ACCF80912A02803208F0A7CF8091C7
:100850002802803208F0A2CF0E94C30280E060E04C
:100860000E94B8029BCFAA1BBB1B51E107C0AA1F65
:10087000BB1FA617B70710F0A61BB70B881F991F41
:100880005A95A9F780959095BC01CD010895F894EB
:02089000FFCF98
:100892005265642050756C73657300477265656EAE
:1008A2002050756C73657300426C75652050756CD1
:0408B20073657300F7
:00000001FF
