S01E0000436F6C6F722053656E736F722044656D6F20436F64652E737265632D
S11300000C9472000C949E000C9486000C94860050
S11300100C9486000C9486000C9486000C94860044
S11300200C9486000C9486000C9486000C94860034
S11300300C9486000C9486000C9486000C94860024
S11300400C9486000C9486000C9486000C94860014
S11300500C9486000C9486000C9486000C94860004
S11300600C9486000C9486000C9486000C948600F4
S11300700C9486000C9486000C9486000C948600E4
S11300800C9486000C9486000C9486000C948600D4
S11300900C9486000C9486000C9486000C948600C4
S11300A00C9486000C9486000C9486000C948600B4
S11300B00C9486000C9486000C9486000C948600A4
S11300C00C9486000C9486000C9486000C94860094
S11300D00C9486000C9486000C9486000C94860084
S11300E00C94860011241FBECFEFD1E2DEBFCDBF3A
S11300F000E00CBF22E0A0E0B2E001C01D92A830F5
S1130100B207E1F70E9414010C9457010C9400000B
S113011081B1876081B982B1887F82B9089550988E
S113012084B18F6084B9589A0895F894E9E6F0E0B0
S1130130808182608083E89A789408951F920F9258
S11301400FB60F9211248F939F9380910602909182
S11301500702019690930702809306029F918F9164
S11301600F900FBE0F901F901895F8940E9488006E
S11301700E948F000E9495007894089585B1837F32
S113018085B9089585B18C6085B908952B9A2A980C
S11301900895299A289A08950E94BE001092070291
S11301A0109206022FEF81EE94E02150804090409F
S11301B0E1F700C00000809106029091070290933D
S11301C005028093040208950E94C200109207025F
S11301D0109206022FEF81EE94E02150804090406F
S11301E0E1F700C00000809106029091070290930D
S11301F003028093020208950E94C600109207022F
S1130200109206022FEF81EE94E02150804090403E
S1130210E1F700C0000080910602909107029093DC
S113022001028093000208950E94B5000E94C90053
S113023015E0C3E0D6E007E00E94CC000E94E40091
S11302400E94FC008091040290910502883B2BE0FF
S1130250920784F42091000230910102283B3B4034
S11302604CF42091020230910302283B3B4014F4E9
S113027002B9E2CF20910202309103022817390714
S11302805CF420910002309101022817390714F41C
S1130290D2B9D2CFC2B9D0CF8091000290910102DD
S11302A02817390714F4C2B9C7CF12B9C5CFF894C7
S10502B0FFCF7A
S9030000FC
